:020000040800F2
:1000000000280020FD1200088D120008931200083D
:10001000991200089F120008A512000800000000B5
:10002000000000000000000000000000AB1200080B
:10003000B712000800000000C3120008CF12000829
:100040004513000845130008451300084513000830
:100050004513000845130008451300084513000820
:100060004513000845130008451300084513000810
:100070004513000845130008451300084513000800
:1000800045130008451300084513000845130008F0
:1000900045130008451300084513000845130008E0
:1000A00045130008451300084513000845130008D0
:1000B000DD12000845130008000000004513000889
:1000C0004513000800000000000000004513000870
:1000D0000000000045130008451300080000000060
:1000E00045130008451300084513000800000000F0
:1000F0000000000000000000000000000000000000
:0C01000000000000000000005FF808F1A3
:10010C0010B5054C237833B9044B13B10448AFF345
:10011C0000800123237010BD30000020000000007F
:10012C00A029000808B5034B1BB103490348AFF3E2
:10013C00008008BD0000000034000020A029000849
:10014C0080B582B000AF00237B607AE0414A7B68C7
:10015C0052F8232040497B6841F823203F4A7B68B2
:10016C0052F823203B497B6841F823203C4A7B68AA
:10017C0052F823203B497B6831F81330194610465E
:10018C0001F0C8FB03461946344A7B6842F8231039
:10019C00314A7B6852F823202E497B6851F8233072
:1001AC009A424BD12B4A7B6852F823202B497B680F
:1001BC0051F823309A4241D12B4A7B6852F82320C4
:1001CC0025497B6851F823309A4218D0224A7B6823
:1001DC0052F8232024497B6841F823201E4A7B686F
:1001EC0052F82330002B29D1204A7B68012142F898
:1001FC0023101F4A7B68C82142F823101EE01C4ABA
:10020C007B6852F823305A1E19497B6841F8232029
:10021C00174A7B6852F82330002B0FDC0E4A7B68A0
:10022C0052F82330002B04D1104A7B68012142F88C
:10023C0023100F4A7B68C82142F823107B680133D6
:10024C007B607B68022B81DD00BF00BF0837BD4699
:10025C0080BD00BF6400002070000020580000200A
:10026C00000000200C0000207C0000204C0000202E
:10027C001400002080B483B000AF7860094A7B681A
:10028C0052F82330012B06D1064A7B68002142F834
:10029C002310012300E0002318460C37BD4680BC18
:1002AC00704700BF4C00002080B500AF00F048FC48
:1002BC000020FFF7DFFF0346002B2DD001224FF467
:1002CC008061164801F03DFB01224FF400511348A8
:1002DC0001F037FB01224FF40061104801F031FBB3
:1002EC0001224FF480410D4801F02BFB01224FF409
:1002FC0080510A4801F025FB01224FF400410748C8
:10030C0001F01FFB064B33221A600A2000F0B6FEE8
:10031C00044B4FF47A721A6000BF80BD0008014094
:10032C00880000209400002080B500AFBF4B1B68F4
:10033C00013B282B00F2BA8101A252F823F000BF36
:10034C00F1030008B9060008B9060008B906000850
:10035C00B9060008B9060008B9060008B906000875
:10036C00B9060008B9060008150400088304000843
:10037C00F1040008B9060008B9060008B90600081F
:10038C00B9060008B9060008B9060008B906000845
:10039C00CD050008B9060008B9060008B906000822
:1003AC00B9060008B9060008B9060008B906000825
:1003BC00B9060008B90600084D060008B906000881
:1003CC00B9060008B9060008B9060008B906000805
:1003DC00B9060008B9060008B9060008B9060008F5
:1003EC005F050008914B0B221A604FF4FA6000F085
:1003FC0045FE00F079FE8E4B42F6F8221A608D4BCA
:10040C004FF4FA621A605EE100224FF480618A4870
:10041C0001F097FA00224FF40051874801F091FA4D
:10042C0001224FF40061844801F08BFA01224FF451
:10043C008041814801F085FA01224FF480517E48B9
:10044C0001F07FFA01224FF400417B4801F079FA68
:10045C00FFF72AFF794B1B68012B40F02981734B66
:10046C000C221A6041F2883000F008FE714B41F208
:10047C0088321A601CE100224FF480616E4801F052
:10048C0060FA01224FF400516B4801F05AFA012234
:10049C004FF40061684801F054FA01224FF4804196
:1004AC00654801F04EFA01224FF48051624801F088
:1004BC0048FA00224FF400415F4801F042FAFFF77E
:1004CC00F3FE5E4B1B68012B40F0F480574B0D2262
:1004DC001A604FF4FA6000F0D1FD564B4FF4FA62FB
:1004EC001A60E7E000224FF48061534801F029FACA
:1004FC0001224FF40051504801F023FA01224FF42D
:10050C0000614D4801F01DFA00224FF480414A4829
:10051C0001F017FA01224FF48051474801F011FA0B
:10052C0001224FF40041444801F00BFAFFF7BCFEE6
:10053C00424B1B68012B40F0BF803C4B29221A60B8
:10054C004FF4FA6000F09AFD3A4B42F6F8221A602A
:10055C00B2E000224FF48061374801F0F2F900223A
:10056C004FF40051344801F0ECF901224FF40061D2
:10057C00314801F0E6F901224FF480412E4801F098
:10058C00E0F901224FF480512B4801F0DAF90122F5
:10059C004FF40041284801F0D4F9FFF785FE274BB2
:1005AC001B68012B40F08A80204B15221A6041F207
:1005BC00883000F063FD1E4B41F288321A607DE0FA
:1005CC0001224FF480611C4801F0BBF900224FF46A
:1005DC000051194801F0B5F901224FF40061164899
:1005EC0001F0AFF901224FF48041134801F0A9F951
:1005FC0000224FF48051104801F0A3F901224FF46E
:10060C0000410D4801F09DF9FFF74EFE0B4B1B68A6
:10061C00012B55D1054B1F221A604FF4FA6000F0E4
:10062C002DFD034B4FF4FA621A6049E0880000205C
:10063C008C0000209000002000080140F4000020F5
:10064C0001224FF48061214801F07BF900224FF424
:10065C0000511E4801F075F900224FF400611B484F
:10066C0001F06FF901224FF48041184801F069F94B
:10067C0001224FF48051154801F063F901224FF427
:10068C000041124801F05DF9FFF70EFE104B1B689C
:10069C00012B17D10F4B0B221A604FF4FA6000F0AC
:1006AC00EDFC0D4B42F6F8221A600BE000BF0AE09D
:1006BC0000BF08E000BF06E000BF04E000BF02E09E
:1006CC0000BF00E000BF00BF80BD00BF00080140BC
:1006DC00F4000020880000208C00002080B500AFC2
:1006EC0000F096FA0120FFF7C5FD0346002B0ED053
:1006FC000F4B1B680F4A934209DC0F4B1B68012BF5
:10070C0005D10B4B1B6803F57A73094A1360022061
:10071C00FFF7B0FD0346002B08D0074B1B68012BDD
:10072C0004D1054B00221A6000F016FD00BF80BDFD
:10073C0094000020B88201002000002080B500AF9A
:10074C00754B1B68472B00F09780472B00F3DB8021
:10075C00332B02D03D2B48D0D5E0704B1B68012BBE
:10076C0025D14FF480616E4801F003F94FF400512C
:10077C006B4801F0FEF801224FF40061684801F06B
:10078C00E0F801224FF48041654801F0DAF80122CB
:10079C004FF48051624801F0D4F801224FF400412B
:1007AC005F4801F0CEF84FF4FA7000F067FCFFF7E9
:1007BC0095FF0020FFF75EFD0346002B02D0564B41
:1007CC003D221A60574B1B68012B40F09E80554B05
:1007DC0000221A60544B01221A60544B4FF47A7267
:1007EC001A604D4B3D221A608FE04C4B1B68012B5D
:1007FC0025D101224FF48061494801F0A2F8012271
:10080C004FF40051464801F09CF84FF40061444805
:10081C0001F0AFF84FF48041414801F0AAF80122F1
:10082C004FF480513E4801F08CF801224FF4004106
:10083C003B4801F086F84FF4FA7000F01FFCFFF70C
:10084C004DFF0020FFF716FD0346002B02D0324B64
:10085C0047221A60334B1B68012B58D1314B0022B5
:10086C001A60314B01221A60304B4FF47A721A60C5
:10087C00294B47221A604AE0284B1B68012B25D1D3
:10088C0001224FF48061264801F05BF801224FF4FD
:10089C000051234801F055F801224FF40061204823
:1008AC0001F04FF801224FF480411D4801F049F846
:1008BC004FF480511A4801F05CF84FF4004118488D
:1008CC0001F057F84FF4FA7000F0D8FBFFF706FF71
:1008DC000020FFF7CFFC0346002B02D00E4B012269
:1008EC001A60104B1B68012B13D10E4B00221A609F
:1008FC000D4B01221A600D4B4FF47A721A60064BA5
:10090C0001221A6005E000BF04E000BF02E000BF56
:10091C0000E000BF00BF80BD88000020F400002074
:10092C000008014004010020200000209400002059
:10093C0080B500AF00F002FD00F014F800F09AF85A
:10094C0000F04CF8054801F065FC054B01221A60DB
:10095C00FFF7EAFCFFF7F2FEFAE700BF9800002071
:10096C008800002080B590B000AF07F11803282252
:10097C000021184602F006F83B1D00221A605A604E
:10098C009A60DA601A610223BB610123BB621023F7
:10099C00FB6200237B6307F11803184601F002F891
:1009AC000346002B01D000F0C5F80F237B60002319
:1009BC00BB600023FB6000233B6100237B613B1D7C
:1009CC000021184601F070FA0346002B01D000F00C
:1009DC00B1F800BF4037BD4680BD000080B586B081
:1009EC0000AF07F1080300221A605A609A60DA60BF
:1009FC003B4600221A605A601D4B4FF080421A6031
:100A0C001B4B41F63F725A60194B00229A60184BEF
:100A1C000922DA60164B00221A61154B00229A61EA
:100A2C00134801F0A7FB0346002B01D000F082F81D
:100A3C004FF48053BB6007F1080319460C4801F0D2
:100A4C003DFD0346002B01D000F074F800233B6001
:100A5C0000237B603B461946054801F005FF034621
:100A6C00002B01D000F066F800BF1837BD4680BDE2
:100A7C009800002080B586B000AF07F10803002273
:100A8C001A605A609A60DA60274B9B69264A43F0D9
:100A9C0004039361244B9B6903F004037B607B6824
:100AAC00214B9B69204A43F0080393611E4B9B69C1
:100ABC0003F008033B603B6800224FF6C0711B48F3
:100ACC0000F03FFF00227F21194800F03AFF382345
:100ADC00BB600023FB6001233B6107F1080319464F
:100AEC00124800F09BFD4FF6C073BB600123FB6006
:100AFC0000233B6102237B6107F1080319460B4875
:100B0C0000F08CFD7F23BB600123FB6000233B6165
:100B1C0002237B6107F108031946054800F07EFDAE
:100B2C0000BF1837BD4680BD0010024000080140D0
:100B3C00000C014080B400AF72B600BFFEE70000AD
:100B4C0080B500AF2A4B1B68012B4ED1294B1B687B
:100B5C00294A82FB03121213DB17D31A274A13609C
:100B6C00244B1B68264A82FB03129211DB17D11A05
:100B7C00244B83FB01239A10CB17D21A13469B00EC
:100B8C0013445B00CA1A1D4B5A601F4B1B681A4A50
:100B9C0082FB03121213DB17D31A184A93601A4BF9
:100BAC001B68174A82FB03129211DB17D11A154BE3
:100BBC0083FB01239A10CB17D21A13469B001344C4
:100BCC005B00CA1A0D4BDA60104B1B68032B02DD5D
:100BDC000E4B00221A600D4B1B685A1C0B490A6005
:100BEC00184600F077F800F07FFA00BF80BD00BF18
:100BFC00FC0000208C000020AD8BDB68E0000020A6
:100C0C00D34D62106766666690000020F0000020ED
:100C1C0080B500AF274B1B68012B48D1264B1B68B6
:100C2C00264A82FB03129210DB17D31A244A136054
:100C3C00214B1968214B83FB01239A10CB17D21A35
:100C4C0013469B0013445B00CA1A1D4B5A601D4B84
:100C5C001B681D4A82FB03121213DB17D31A184AA6
:100C6C009360184B1B68194A82FB03129211DB1715
:100C7C00D11A124B83FB01239A10CB17D21A1346AD
:100C8C009B0013445B00CA1A0D4BDA60104B1B68B7
:100C9C00032B02DD0E4B00221A600D4B1B685A1CF5
:100CAC000B490A60184600F015F800F01DFA00BF59
:100CBC0080BD00BFFC0000208800002067666666CF
:100CCC00E000002094000020AD8BDB68D34D621057
:100CDC00F000002080B582B000AF78607B68032BF9
:100CEC007AD801A252F823F0050D00083D0D00083A
:100CFC00750D0008AD0D000800224021394800F0A8
:100D0C0020FE01228021374800F01BFE01224FF407
:100D1C008071344800F015FE01224FF40071314807
:100D2C0000F00FFE304B1B68184600F05FF854E0E3
:100D3C00012240212B4800F004FE0022802129488A
:100D4C0000F0FFFD01224FF48071264800F0F9FD00
:100D5C0001224FF40071234800F0F3FD224B5B6835
:100D6C00184600F043F838E0012240211D4800F0FD
:100D7C00E8FD012280211B4800F0E3FD00224FF426
:100D8C008071184800F0DDFD01224FF40071154808
:100D9C0000F0D7FD144B9B68184600F027F81CE0B8
:100DAC00012240210F4800F0CCFD012280210D488A
:100DBC0000F0C7FD01224FF480710A4800F0C1FD1C
:100DCC0000224FF40071074800F0BBFD064BDB68B6
:100DDC00184600F00BF800E000BF00BF0837BD4616
:100DEC0080BD00BF00080140E000002080B582B04B
:100DFC0000AF7860012201219F4800F0A2FD012282
:100E0C0002219D4800F09DFD012204219A4800F02A
:100E1C0098FD01220821984800F093FD0122102131
:100E2C00954800F08EFD01222021934800F089FDA9
:100E3C0001224021904800F084FD7B68092B00F2D0
:100E4C00168101A252F823F07D0E0008BB0E00089B
:100E5C00D10E0008050F0008390F0008630F0008B9
:100E6C00970F0008D50F0008F50F00083D1000087B
:100E7C0000220121804800F064FD002202217E48FE
:100E8C0000F05FFD002204217B4800F05AFD002297
:100E9C000821794800F055FD00221021764800F019
:100EAC0050FD00222021744800F04BFDE0E00022B0
:100EBC000221714800F045FD002204216E4800F02B
:100ECC0040FDD5E0002201216B4800F03AFD0022E4
:100EDC000221694800F035FD00220821664800F027
:100EEC0030FD00221021644800F02BFD002240212F
:100EFC00614800F026FDBBE0002201215E4800F0B5
:100F0C0020FD002202215C4800F01BFD0022042180
:100F1C00594800F016FD00220821574800F011FD39
:100F2C0000224021544800F00CFDA1E000220221D7
:100F3C00514800F006FD002204214F4800F001FD4D
:100F4C00002220214C4800F0FCFC002240214A48A1
:100F5C0000F0F7FC8CE000220121474800F0F1FC86
:100F6C0000220421444800F0ECFC002208214248F5
:100F7C0000F0E7FC002220213F4800F0E2FC0022B8
:100F8C0040213D4800F0DDFC72E0002201213A488E
:100F9C0000F0D7FC00220421374800F0D2FC0022DC
:100FAC000821354800F0CDFC00221021324800F019
:100FBC00C8FC00222021304800F0C3FC0022402154
:100FCC002D4800F0BEFC53E0002201212A4800F01D
:100FDC00B8FC00220221284800F0B3FC00220421B6
:100FEC00254800F0AEFC43E000220121224800F02D
:100FFC00A8FC00220221204800F0A3FC00220421BE
:10100C001D4800F09EFC002208211B4800F099FCB2
:10101C0000221021184800F094FC002220211648D0
:10102C0000F08FFC00224021134800F08AFC1FE0E6
:10103C0000220121104800F084FC002202210E48FD
:10104C0000F07FFC002204210B4800F07AFC002207
:10105C000821094800F075FC00222021064800F008
:10106C0070FC00224021044800F06BFC00E000BF43
:10107C0000BF0837BD4680BD000C014080B483B072
:10108C0000AF7860084B00221A607B68074A82FB2D
:10109C0003129210DB17D31A054A136000BF0C37EA
:1010AC00BD4680BC704700BFF400002067666666D2
:1010BC00F800002080B400AF094B1B68002B0BDD3F
:1010CC00074B1B68013B064A1360054B1B68002B42
:1010DC0002DC044B01221A6000BFBD4680BC704785
:1010EC00F8000020F400002080B400AF044B002274
:1010FC001A60044B19221A6000BFBD4680BC7047B1
:10110C00FC0000200001002080B400AF0E4B1B68D7
:10111C00002B15DD0D4B1B680A3B0C4A13600C4B66
:10112C001B680A3B0A4A1360074B1B68013B064AC3
:10113C001360054B1B68002B02DC064B01221A6066
:10114C0000BFBD4680BC7047000100208C00002011
:10115C0090000020FC00002080B400AF084B00225F
:10116C001A60084B1B68084A82FB03129210DB17AB
:10117C00D31A064A136000BFBD4680BC704700BF3F
:10118C0004010020940000206766666608010020B8
:10119C0080B400AF0C4B1B68002B10DD0B4B1B6895
:1011AC000A3B0A4A1360084B1B68013B064A136052
:1011BC00054B1B68002B02DC054B01221A6000BF9B
:1011CC00BD4680BC704700BF080100209400002081
:1011DC000401002080B582B000AF7860FEF7B0FF4C
:1011EC00FFF768FFFFF790FFFFF7D2FF00BF08374C
:1011FC00BD4680BD80B483B000AF0E4B9B690D4AD9
:10120C0043F0010393610B4B9B6903F001037B607B
:10121C007B68084BDB69074A43F08053D361054B6D
:10122C00DB6903F080533B603B6800BF0C37BD4665
:10123C0080BC70470010024080B584B000AF78606D
:10124C007B681B68B3F1804F13D10C4BDB690B4AE5
:10125C0043F00103D361094BDB6903F00103FB602D
:10126C00FB68002200211C2000F0A1F91C2000F0DA
:10127C00BAF900BF1037BD4680BD00BF0010024058
:10128C0080B400AFFEE780B400AFFEE780B400AFDF
:10129C00FEE780B400AFFEE780B400AFFEE780B499
:1012AC0000AF00BFBD4680BC704780B400AF00BF2C
:1012BC00BD4680BC704780B400AF00BFBD4680BC4B
:1012CC00704780B500AF00F07FF800BF80BD000014
:1012DC0080B500AF024800F0E9FF00BF80BD00BF41
:1012EC009800002080B400AF00BFBD4680BC7047A2
:1012FC000C480D490D4A002302E0D458C450043365
:10130C00C4188C42F9D30A4A0A4C002301E013603A
:10131C000432A242FBD3FFF7E5FF01F00FFBFFF70E
:10132C0007FB70470000002030000020E029000877
:10133C003000002010010020FEE7000080B500AF57
:10134C00084B1B68074A43F010031360032000F09E
:10135C0023F90F2000F008F8FFF74CFF0023184684
:10136C0080BD00BF0020024080B582B000AF786025
:10137C00124B1A68124B1B7819464FF47A73B3FB55
:10138C00F1F3B2FBF3F3184600F03BF90346002BE4
:10139C0001D001230EE07B680F2B0AD8002279685C
:1013AC004FF0FF3000F003F9064A7B68136000230E
:1013BC0000E0012318460837BD4680BD24000020FC
:1013CC002C0000202800002080B400AF054B1B78B7
:1013DC001A46054B1B681344034A136000BFBD46F5
:1013EC0080BC70472C0000200C01002080B400AFA2
:1013FC00024B1B681846BD4680BC70470C01002090
:10140C0080B485B000AF78607B6803F00703FB60A5
:10141C000C4BDB68BB60BA684FF6FF031340BB6034
:10142C00FB681A02BB68134343F0BF6343F40033F9
:10143C00BB60044ABB68D36000BF1437BD4680BC98
:10144C00704700BF00ED00E080B400AF044BDB68D8
:10145C001B0A03F007031846BD4680BC704700BF4B
:10146C0000ED00E080B483B000AF0346FB7197F948
:10147C000730002B0BDBFB7903F01F02064997F9B1
:10148C0007305B09012000FA02F241F8232000BF6B
:10149C000C37BD4680BC704700E100E080B483B0DF
:1014AC0000AF03463960FB7197F90730002B0ADB5C
:1014BC003B68DAB20C4997F907301201D2B20B44EF
:1014CC0083F800230AE03B68DAB20849FB7903F0A1
:1014DC000F03043B1201D2B20B441A7600BF0C3737
:1014EC00BD4680BC704700BF00E100E000ED00E0AD
:1014FC0080B489B000AFF860B9607A60FB6803F023
:10150C000703FB61FB69C3F10703042B28BF04230A
:10151C00BB61FB690433062B02D9FB69033B00E07A
:10152C0000237B614FF0FF32BB6902FA03F3DA430D
:10153C00BB681A407B699A404FF0FF317B6901FA16
:10154C0003F3D9437B680B40134318462437BD463D
:10155C0080BC704780B582B000AF78607B68013B7F
:10156C00B3F1807F01D301230FE00A4A7B68013B72
:10157C0053600F214FF0FF30FFF790FF054B002217
:10158C009A60044B07221A60002318460837BD46A0
:10159C0080BD00BF10E000E080B582B000AF786085
:1015AC007868FFF72DFF00BF0837BD4680BD80B5BA
:1015BC0086B000AF0346B9607A60FB7300237B6191
:1015CC00FFF742FF78617A68B9687869FFF790FF96
:1015DC00024697F90F3011461846FFF75FFF00BF20
:1015EC001837BD4680BD80B582B000AF0346FB7195
:1015FC0097F907301846FFF735FF00BF0837BD468F
:10160C0080BD80B582B000AF78607868FFF7A2FF2C
:10161C00034618460837BD4680BD000080B48BB029
:10162C0000AF7860396000237B6200233B6261E18C
:10163C0001227B6A02FA03F3FB613B681B68FA69BF
:10164C001340BB61BA69FB699A4240F050813B6818
:10165C005B68974A93425ED0954A934275D8954AF7
:10166C00934258D0934A93426FD8934A934252D0A4
:10167C00914A934269D8914A93424CD08F4A9342F3
:10168C0063D88F4A934246D08D4A93425DD8122B31
:10169C002AD8122B59D801A252F823F0231700088C
:1016AC00FD1600080F1700085117000857170008FF
:1016BC005717000857170008571700085717000846
:1016CC005717000857170008571700085717000836
:1016DC005717000857170008571700085717000826
:1016EC000517000819170008764A934213D02CE00E
:1016FC003B68DB683B6229E03B68DB6804333B6298
:10170C0024E03B68DB6808333B621FE03B68DB6826
:10171C000C333B621AE03B689B68002B02D104231C
:10172C003B6213E03B689B68012B05D108233B62AD
:10173C007B68FA691A6109E008233B627B68FA69E5
:10174C005A6103E000233B6200E000BFBB69FF2B42
:10175C0001D87B6801E07B6804337B61BB69FF2B9C
:10176C0002D87B6A9B0002E07B6A083B9B003B61D2
:10177C007B691A680F213B6901FA03F3DB431A40BA
:10178C00396A3B6901FA03F31A437B691A603B68B7
:10179C005B6803F08053002B00F0A9804A4B9B69D7
:1017AC00494A43F001039361474B9B6903F00103E2
:1017BC00BB60BB68454A7B6A9B08023352F82330F6
:1017CC00FB607B6A03F003039B000F2202FA03F316
:1017DC00DB43FA681340FB607B683D4A93420DD0B3
:1017EC007B683C4A934207D07B683B4A934201D1C9
:1017FC00022304E0032302E0012300E000237A6AC1
:10180C0002F0030292009340FA681343FB602F49E5
:10181C007B6A9B080233FA6841F823203B685B68BB
:10182C0003F48033002B06D02C4B1A682B49BB6970
:10183C0013430B6006E0294B1A68BB69DB4327494D
:10184C0013400B603B685B6803F40033002B06D03D
:10185C00224B5A682149BB6913434B6006E01F4B6E
:10186C005A68BB69DB431D4913404B603B685B689E
:10187C0003F48013002B06D0184B9A681749BB69E8
:10188C0013438B6006E0154B9A68BB69DB43134925
:10189C0013408B603B685B6803F40013002B1FD074
:1018AC000E4BDA680D49BB691343CB601FE000BFD8
:1018BC000000321000003110000022100000211036
:1018CC000000121000001110001002400000014036
:1018DC0000080140000C01400010014000040140D0
:1018EC000B4BDA68BB69DB4309491340CB607B6A5D
:1018FC0001337B623B681A687B6A22FA03F3002B84
:10190C007FF496AE00BF00BF2C37BD4680BC70473D
:10191C000004014080B485B000AF78600B467B803A
:10192C007B689A687B881340002B02D00123FB73E1
:10193C0001E00023FB73FB7B18461437BD4680BCCB
:10194C00704780B483B000AF78600B467B80134641
:10195C007B707B78002B03D07A887B681A6103E05C
:10196C007B881A047B681A6100BF0C37BD4680BCAB
:10197C00704780B485B000AF78600B467B807B6885
:10198C00DB68FB607A88FB6813401A04FB68D94358
:10199C007B880B401A437B681A6100BF1437BD4625
:1019AC0080BC704780B586B000AF78607B68002B38
:1019BC0001D1012372E27B681B6803F00103002B49
:1019CC0000F08780924B5B6803F00C03042B0CD067
:1019DC008F4B5B6803F00C03082B12D18C4B5B68AC
:1019EC0003F48033B3F5803F0BD1894B1B6803F4B0
:1019FC000033002B6CD07B685B68002B68D1012313
:101A0C004CE27B685B68B3F5803F06D1804B1B686A
:101A1C007F4A43F4803313602EE07B685B68002BB5
:101A2C000CD17B4B1B687A4A23F480331360784BC0
:101A3C001B68774A23F4802313601DE07B685B6886
:101A4C00B3F5A02F0CD1724B1B68714A43F4802361
:101A5C0013606F4B1B686E4A43F4803313600BE0CA
:101A6C006B4B1B686A4A23F480331360684B1B680A
:101A7C00674A23F4802313607B685B68002B13D0C8
:101A8C00FFF7B4FC386108E0FFF7B0FC02463B6995
:101A9C00D31A642B01D9032300E25D4B1B6803F4BA
:101AAC000033002BF0D014E0FFF7A0FC386108E005
:101ABC00FFF79CFC02463B69D31A642B01D9032324
:101ACC00ECE1534B1B6803F40033002BF0D100E026
:101ADC0000BF7B681B6803F00203002B63D04C4BE8
:101AEC005B6803F00C03002B0BD0494B5B6803F0D5
:101AFC000C03082B1CD1464B5B6803F48033002B82
:101B0C0016D1434B1B6803F00203002B05D07B68F6
:101B1C001B69012B01D00123C0E13D4B1B6823F055
:101B2C00F8027B685B69DB00394913430B603AE0D0
:101B3C007B681B69002B20D0364B01221A60FFF703
:101B4C0055FC386108E0FFF751FC02463B69D31A9B
:101B5C00022B01D90323A1E12D4B1B6803F00203D7
:101B6C00002BF0D02A4B1B6823F0F8027B685B69D2
:101B7C00DB00274913430B6015E0264B00221A604B
:101B8C00FFF734FC386108E0FFF730FC02463B6994
:101B9C00D31A022B01D9032380E11D4B1B6803F0E0
:101BAC000203002BF0D17B681B6803F00803002BA9
:101BBC003AD07B689B69002B19D0174B01221A6015
:101BCC00FFF714FC386108E0FFF710FC02463B6994
:101BDC00D31A022B01D9032360E10D4B5B6A03F08E
:101BEC000203002BF0D0012000F0A6FA1CE00A4BF7
:101BFC0000221A60FFF7FAFB38610FE0FFF7F6FBE3
:101C0C0002463B69D31A022B08D9032346E100BFD5
:101C1C00001002400000424280044242924B5B6A38
:101C2C0003F00203002BE9D17B681B6803F004036B
:101C3C00002B00F0A6800023FB758B4BDB6903F0B7
:101C4C008053002B0DD1884BDB69874A43F08053BE
:101C5C00D361854BDB6903F08053BB60BB68012308
:101C6C00FB75824B1B6803F48073002B18D17F4BE0
:101C7C001B687E4A43F480731360FFF7B7FB38612F
:101C8C0008E0FFF7B3FB02463B69D31A642B01D97A
:101C9C00032303E1754B1B6803F48073002BF0D016
:101CAC007B68DB68012B06D16F4B1B6A6E4A43F0D5
:101CBC00010313622DE07B68DB68002B0CD16A4BAF
:101CCC001B6A694A23F001031362674B1B6A664A5D
:101CDC0023F0040313621CE07B68DB68052B0CD13A
:101CEC00614B1B6A604A43F0040313625E4B1B6A30
:101CFC005D4A43F0010313620BE05B4B1B6A5A4ACB
:101D0C0023F001031362584B1B6A574A23F0040358
:101D1C0013627B68DB68002B15D0FFF767FB38611B
:101D2C000AE0FFF763FB02463B69D31A41F28832A3
:101D3C00934201D90323B1E04B4B1B6A03F002031E
:101D4C00002BEED014E0FFF751FB38610AE0FFF7EF
:101D5C004DFB02463B69D31A41F28832934201D9BA
:101D6C0003239BE0404B1B6A03F00203002BEED1D4
:101D7C00FB7D012B05D13C4BDB693B4A23F08053A7
:101D8C00D3617B68DB69002B00F08780364B5B6886
:101D9C0003F00C03082B61D07B68DB69022B46D166
:101DAC00334B00221A60FFF721FB386108E0FFF784
:101DBC001DFB02463B69D31A022B01D903236DE0AC
:101DCC00294B1B6803F00073002BF0D17B681B6A56
:101DDC00B3F5803F08D1244B5B6823F400327B6859
:101DEC009B68214913434B601F4B5B6823F47412AF
:101DFC007B68196A7B685B6A0B431B4913434B6016
:101E0C001B4B01221A60FFF7F1FA386108E0FFF76B
:101E1C00EDFA02463B69D31A022B01D903233DE0AC
:101E2C00114B1B6803F00073002BF0D035E0104B06
:101E3C0000221A60FFF7DAFA386108E0FFF7D6FAE9
:101E4C0002463B69D31A022B01D9032326E0064B29
:101E5C001B6803F00073002BF0D11EE07B68DB697C
:101E6C00012B07D1012319E0001002400070004043
:101E7C00600042420B4B5B68FB60FB6803F48032F2
:101E8C007B681B6A9A4206D1FB6803F470127B686C
:101E9C005B6A9A4201D0012300E0002318461837F0
:101EAC00BD4680BD0010024080B584B000AF7860A4
:101EBC0039607B68002B01D10123D0E06A4B1B6891
:101ECC0003F007033A689A4210D9674B1B6823F05A
:101EDC00070265493B6813430B60634B1B6803F0B7
:101EEC0007033A689A4201D00123B8E07B681B686B
:101EFC0003F00203002B20D07B681B6803F0040363
:101F0C00002B05D0594B5B68584A43F4E06353608F
:101F1C007B681B6803F00803002B05D0534B5B68F0
:101F2C00524A43F460535360504B5B6823F0F00209
:101F3C007B689B684D4913434B607B681B6803F0BF
:101F4C000103002B40D07B685B68012B07D1474B0A
:101F5C001B6803F40033002B15D101237FE07B6851
:101F6C005B68022B07D1414B1B6803F00073002BFD
:101F7C0009D1012373E03D4B1B6803F00203002BD6
:101F8C0001D101236BE0394B5B6823F003027B68C2
:101F9C005B68364913434B60FFF728FAF8600AE098
:101FAC00FFF724FA0246FB68D31A41F288329342B7
:101FBC0001D9032353E02D4B5B6803F00C027B68C3
:101FCC005B689B009A42EBD1274B1B6803F007031D
:101FDC003A689A4210D2244B1B6823F0070222491C
:101FEC003B6813430B60204B1B6803F007033A68F4
:101FFC009A4201D0012332E07B681B6803F0040392
:10200C00002B08D0194B5B6823F4E0627B68DB681B
:10201C00164913434B607B681B6803F00803002BC5
:10202C0009D0124B5B6823F460527B681B69DB00A0
:10203C000E4913434B6000F021F802460B4B5B68D2
:10204C001B0903F00F030A49CB5C22FA03F3094A7C
:10205C001360094B1B681846FFF786F900231846D6
:10206C001037BD4680BD00BF00200240001002406A
:10207C00C8290008240000202800002090B48AB051
:10208C0000AF294B3C1D0FCB84E80F0040F201231D
:10209C003B800023FB610023BB6100237B62002398
:1020AC007B6100233B62214B5B68FB61FB6903F0A6
:1020BC000C03042B02D0082B03D02BE01C4B3B62EF
:1020CC002BE0FB699B0C03F00F0328333B4413F804
:1020DC00243C7B61FB6903F48033002B12D0134B3F
:1020EC005B685B0C03F0010328333B4413F8283C7A
:1020FC00BB617B690E4A03FB02F2BB69B2FBF3F3D3
:10210C007B6204E07B690B4A02FB03F37B627B6A14
:10211C003B6202E0064B3B6200BF3B6A1846283725
:10212C00BD4690BC704700BFB829000800100240A3
:10213C0000127A0000093D0080B485B000AF7860D1
:10214C000A4B1B680A4AA2FB03235B0A7A6802FB50
:10215C0003F3FB6000BFFB685A1EFA60002BF9D139
:10216C0000BF00BF1437BD4680BC70472400002060
:10217C00D34D621080B582B000AF78607B68002BC5
:10218C0001D1012341E07B6893F83D30DBB2002B99
:10219C0006D17B68002283F83C207868FFF74CF866
:1021AC007B68022283F83D207B681A687B680433C5
:1021BC001946104600F06AFA7B68012283F8462023
:1021CC007B68012283F83E207B68012283F83F2044
:1021DC007B68012283F840207B68012283F8412030
:1021EC007B68012283F842207B68012283F843201C
:1021FC007B68012283F844207B68012283F8452008
:10220C007B68012283F83D20002318460837BD4621
:10221C0080BD000080B485B000AF78607B6893F817
:10222C003D30DBB2012B01D0012335E07B6802226B
:10223C0083F83D207B681B68DA687B681B6842F07A
:10224C000102DA607B681B68164A934209D07B68EE
:10225C001B68B3F1804F04D07B681B68124A934211
:10226C0011D17B681B689B6803F00703FB60FB685C
:10227C00062B10D07B681B681A687B681B6842F0C1
:10228C0001021A6007E07B681B681A687B681B6890
:10229C0042F001021A60002318461437BD4680BC78
:1022AC00704700BF002C01400004004080B582B094
:1022BC0000AF78607B681B681B6903F00203022B7C
:1022CC0022D17B681B68DB6803F00203022B1BD155
:1022DC007B681B686FF002021A617B6801221A7717
:1022EC007B681B689B6903F00303002B03D07868A1
:1022FC0000F0B1F905E0786800F0A4F9786800F016
:10230C00B3F97B6800221A777B681B681B6903F0A2
:10231C000403042B22D17B681B68DB6803F00403E5
:10232C00042B1BD17B681B686FF004021A617B685D
:10233C0002221A777B681B689B6903F44073002B9D
:10234C0003D0786800F087F905E0786800F07AF936
:10235C00786800F089F97B6800221A777B681B6823
:10236C001B6903F00803082B22D17B681B68DB6810
:10237C0003F00803082B1BD17B681B686FF0080265
:10238C001A617B6804221A777B681B68DB6903F08F
:10239C000303002B03D0786800F05DF905E0786842
:1023AC0000F050F9786800F05FF97B6800221A772A
:1023BC007B681B681B6903F01003102B22D17B6810
:1023CC001B68DB6803F01003102B1BD17B681B68A8
:1023DC006FF010021A617B6808221A777B681B6801
:1023EC00DB6903F44073002B03D0786800F033F9F9
:1023FC0005E0786800F026F9786800F035F97B681C
:10240C0000221A777B681B681B6903F00103012B00
:10241C000ED17B681B68DB6803F00103012B07D12D
:10242C007B681B686FF001021A617868FEF7D2FEB8
:10243C007B681B681B6903F08003802B0ED17B68C3
:10244C001B68DB6803F08003802B07D17B681B685B
:10245C006FF080021A61786800F067FA7B681B687D
:10246C001B6903F04003402B0ED17B681B68DB68B3
:10247C0003F04003402B07D17B681B686FF04002D0
:10248C001A61786800F0F9F87B681B681B6903F027
:10249C002003202B0ED17B681B68DB6803F0200324
:1024AC00202B07D17B681B686FF020021A617868BB
:1024BC0000F032FA00BF0837BD4680BD80B584B04D
:1024CC0000AF786039607B6893F83C30012B01D108
:1024DC000223B3E07B68012283F83C207B68022254
:1024EC0083F83D207B681B689B68FB60FB6823F0CE
:1024FC007703FB60FB6823F47F43FB607B681B68FE
:10250C00FA689A603B681B68B3F5005F3ED0B3F580
:10251C00005F00F28780B3F5805F00F08580B3F533
:10252C00805F7FD8702B1AD0702B7BD8602B50D04B
:10253C00602B77D8502B3CD0502B73D8402B58D0D5
:10254C00402B6FD8302B64D0302B6BD8202B60D025
:10255C00202B67D8002B5CD0102B5AD062E07B6804
:10256C0018683B6899683B685A683B68DB6800F000
:10257C005CF97B681B689B68FB60FB6843F0770326
:10258C00FB607B681B68FA689A604EE07B68186891
:10259C003B6899683B685A683B68DB6800F045F912
:1025AC007B681B689A687B681B6842F480429A605F
:1025BC003BE07B6818683B6859683B68DB681A46E7
:1025CC0000F0BCF87B681B685021184600F013F92A
:1025DC002BE07B6818683B6859683B68DB681A46D7
:1025EC0000F0DAF87B681B686021184600F003F9EC
:1025FC001BE07B6818683B6859683B68DB681A46C7
:10260C0000F09CF87B681B684021184600F0F3F83A
:10261C000BE07B681A683B681B681946104600F093
:10262C00EAF802E000BF00E000BF7B68012283F8FB
:10263C003D207B68002283F83C200023184610378D
:10264C00BD4680BD80B483B000AF786000BF0C374E
:10265C00BD4680BC704780B483B000AF786000BFCB
:10266C000C37BD4680BC704780B483B000AF786037
:10267C0000BF0C37BD4680BC704780B483B000AF40
:10268C00786000BF0C37BD4680BC704780B485B005
:10269C0000AF786039607B681B68FB607B68254AFB
:1026AC00934207D07B68B3F1804F03D07B68224AFA
:1026BC00934208D1FB6823F07003FB603B685B68B6
:1026CC00FA681343FB607B681A4A934207D07B6815
:1026DC00B3F1804F03D07B68174A934208D1FB6853
:1026EC0023F44073FB603B68DB68FA681343FB60C0
:1026FC00FB6823F080023B685B691343FB607B68DB
:10270C00FA681A603B689A687B68DA623B681A68F8
:10271C007B689A627B68074A934203D13B681A69CB
:10272C007B681A637B6801225A6100BF1437BD466F
:10273C0080BC7047002C01400004004080B487B07E
:10274C0000AFF860B9607A60FB681B6A7B61FB685C
:10275C001B6A23F00102FB681A62FB689B693B61F0
:10276C003B6923F0F0033B617B681B013A6913431F
:10277C003B617B6923F00A037B617A69BB68134375
:10278C007B61FB683A699A61FB687A691A6200BFDF
:10279C001C37BD4680BC704780B487B000AFF86072
:1027AC00B9607A60FB681B6A23F01002FB681A623E
:1027BC00FB689B697B61FB681B6A3B617B6923F44B
:1027CC0070437B617B681B037A6913437B613B69B4
:1027DC0023F0A0033B61BB681B013A6913433B61C7
:1027EC00FB687A699A61FB683A691A6200BF1C3708
:1027FC00BD4680BC704780B485B000AF786039604E
:10280C007B689B68FB60FB6823F07003FB603A6895
:10281C00FB68134343F00703FB607B68FA689A601C
:10282C0000BF1437BD4680BC704780B487B000AF82
:10283C00F860B9607A603B60FB689B687B617B6980
:10284C0023F47F437B613B681A027B681A43BB68A5
:10285C0013437A6913437B61FB687A699A6000BF02
:10286C001C37BD4680BC704780B485B000AF786023
:10287C0039607B6893F83C30012B01D1022341E095
:10288C007B68012283F83C207B68022283F83D2080
:10289C007B681B685B68FB607B681B689B68BB6024
:1028AC00FB6823F07003FB603B681B68FA681343FA
:1028BC00FB607B681B68FA685A607B681B68144A6B
:1028CC00934209D07B681B68B3F1804F04D07B68BE
:1028DC001B68104A93420CD1BB6823F08003BB6089
:1028EC003B685B68BA681343BB607B681B68BA685B
:1028FC009A607B68012283F83D207B68002283F874
:10290C003C20002318461437BD4680BC704700BFDE
:10291C00002C01400004004080B483B000AF78600C
:10292C0000BF0C37BD4680BC704780B483B000AF8D
:10293C00786000BF0C37BD4680BC704770B5002670
:10294C000C4D0D4C641BA410A64209D100F022F8CA
:10295C0000260A4D0A4C641BA410A64205D170BD7A
:10296C0055F8043B98470136EEE755F8043B984779
:10297C000136F2E7D8290008D8290008D829000820
:10298C00DC29000803460244934200D1704703F847
:10299C00011BF9E7F8B500BFF8BC08BC9E467047B0
:0C29AC00F8B500BFF8BC08BC9E467047A0
:1029B80002030405060708090A0B0C0D0E0F101078
:1029C80000000000000000000102030406070809D7
:0429D80031010008C1
:0429DC000D010008E1
:1029E00000080140000801400008014008001000F4
:1029F00020000000C8000000C8000000C80000005F
:102A0000010000000024F40010000000010000009C
:04000005080012FDE0
:00000001FF
